{
  "_format": "hh-sol-artifact-1",
  "contractName": "AuctionHouse",
  "sourceName": "contracts/AuctionHouse.sol",
  "abi": [
    {
      "inputs": [
        {
          "internalType": "address",
          "name": "_stakeVault",
          "type": "address"
        }
      ],
      "stateMutability": "nonpayable",
      "type": "constructor"
    },
    {
      "inputs": [],
      "name": "AgentNotStaked",
      "type": "error"
    },
    {
      "inputs": [],
      "name": "AlreadyRevealed",
      "type": "error"
    },
    {
      "inputs": [],
      "name": "BidWindowClosed",
      "type": "error"
    },
    {
      "inputs": [],
      "name": "CommitmentMismatch",
      "type": "error"
    },
    {
      "inputs": [],
      "name": "ExecutionDeadlinePassed",
      "type": "error"
    },
    {
      "inputs": [],
      "name": "InsufficientCollateral",
      "type": "error"
    },
    {
      "inputs": [],
      "name": "InsufficientTaskFee",
      "type": "error"
    },
    {
      "inputs": [
        {
          "internalType": "enum AuctionHouse.TaskState",
          "name": "current",
          "type": "uint8"
        }
      ],
      "name": "InvalidState",
      "type": "error"
    },
    {
      "inputs": [],
      "name": "NotWinner",
      "type": "error"
    },
    {
      "inputs": [
        {
          "internalType": "address",
          "name": "owner",
          "type": "address"
        }
      ],
      "name": "OwnableInvalidOwner",
      "type": "error"
    },
    {
      "inputs": [
        {
          "internalType": "address",
          "name": "account",
          "type": "address"
        }
      ],
      "name": "OwnableUnauthorizedAccount",
      "type": "error"
    },
    {
      "inputs": [],
      "name": "ReentrancyGuardReentrantCall",
      "type": "error"
    },
    {
      "inputs": [],
      "name": "RevealWindowClosed",
      "type": "error"
    },
    {
      "inputs": [],
      "name": "ScoreOutOfRange",
      "type": "error"
    },
    {
      "inputs": [],
      "name": "TaskNotFound",
      "type": "error"
    },
    {
      "inputs": [],
      "name": "WindowStillOpen",
      "type": "error"
    },
    {
      "anonymous": false,
      "inputs": [
        {
          "indexed": true,
          "internalType": "uint256",
          "name": "taskId",
          "type": "uint256"
        },
        {
          "indexed": true,
          "internalType": "address",
          "name": "winner",
          "type": "address"
        },
        {
          "indexed": false,
          "internalType": "uint256",
          "name": "secondPrice",
          "type": "uint256"
        },
        {
          "indexed": false,
          "internalType": "uint256",
          "name": "bidderCount",
          "type": "uint256"
        }
      ],
      "name": "AuctionCleared",
      "type": "event"
    },
    {
      "anonymous": false,
      "inputs": [
        {
          "indexed": true,
          "internalType": "uint256",
          "name": "taskId",
          "type": "uint256"
        },
        {
          "indexed": true,
          "internalType": "address",
          "name": "bidder",
          "type": "address"
        },
        {
          "indexed": false,
          "internalType": "bytes32",
          "name": "commitment",
          "type": "bytes32"
        }
      ],
      "name": "BidCommitted",
      "type": "event"
    },
    {
      "anonymous": false,
      "inputs": [
        {
          "indexed": true,
          "internalType": "uint256",
          "name": "taskId",
          "type": "uint256"
        },
        {
          "indexed": true,
          "internalType": "address",
          "name": "bidder",
          "type": "address"
        },
        {
          "indexed": false,
          "internalType": "uint256",
          "name": "amount",
          "type": "uint256"
        }
      ],
      "name": "BidRevealed",
      "type": "event"
    },
    {
      "anonymous": false,
      "inputs": [
        {
          "indexed": true,
          "internalType": "uint256",
          "name": "taskId",
          "type": "uint256"
        },
        {
          "indexed": true,
          "internalType": "address",
          "name": "executor",
          "type": "address"
        },
        {
          "indexed": false,
          "internalType": "uint256",
          "name": "executeDeadline",
          "type": "uint256"
        }
      ],
      "name": "ExecutionStarted",
      "type": "event"
    },
    {
      "anonymous": false,
      "inputs": [
        {
          "indexed": true,
          "internalType": "address",
          "name": "previousOwner",
          "type": "address"
        },
        {
          "indexed": true,
          "internalType": "address",
          "name": "newOwner",
          "type": "address"
        }
      ],
      "name": "OwnershipTransferred",
      "type": "event"
    },
    {
      "anonymous": false,
      "inputs": [
        {
          "indexed": true,
          "internalType": "address",
          "name": "recipient",
          "type": "address"
        },
        {
          "indexed": false,
          "internalType": "uint256",
          "name": "amount",
          "type": "uint256"
        },
        {
          "indexed": false,
          "internalType": "string",
          "name": "reason",
          "type": "string"
        }
      ],
      "name": "RefundQueued",
      "type": "event"
    },
    {
      "anonymous": false,
      "inputs": [
        {
          "indexed": true,
          "internalType": "uint256",
          "name": "taskId",
          "type": "uint256"
        },
        {
          "indexed": true,
          "internalType": "address",
          "name": "executor",
          "type": "address"
        },
        {
          "indexed": false,
          "internalType": "string",
          "name": "storagePointer",
          "type": "string"
        },
        {
          "indexed": false,
          "internalType": "uint256",
          "name": "computeUnitsUsed",
          "type": "uint256"
        }
      ],
      "name": "TaskCompleted",
      "type": "event"
    },
    {
      "anonymous": false,
      "inputs": [
        {
          "indexed": true,
          "internalType": "uint256",
          "name": "taskId",
          "type": "uint256"
        },
        {
          "indexed": true,
          "internalType": "address",
          "name": "submitter",
          "type": "address"
        },
        {
          "indexed": false,
          "internalType": "uint256",
          "name": "refundAmount",
          "type": "uint256"
        }
      ],
      "name": "TaskRefunded",
      "type": "event"
    },
    {
      "anonymous": false,
      "inputs": [
        {
          "indexed": true,
          "internalType": "uint256",
          "name": "taskId",
          "type": "uint256"
        },
        {
          "indexed": false,
          "internalType": "uint256",
          "name": "efficiencyScore",
          "type": "uint256"
        }
      ],
      "name": "TaskSettled",
      "type": "event"
    },
    {
      "anonymous": false,
      "inputs": [
        {
          "indexed": true,
          "internalType": "uint256",
          "name": "taskId",
          "type": "uint256"
        },
        {
          "indexed": true,
          "internalType": "address",
          "name": "submitter",
          "type": "address"
        },
        {
          "indexed": false,
          "internalType": "uint256",
          "name": "difficultyScore",
          "type": "uint256"
        },
        {
          "indexed": false,
          "internalType": "uint256",
          "name": "reservePrice",
          "type": "uint256"
        },
        {
          "indexed": false,
          "internalType": "uint256",
          "name": "bidDeadline",
          "type": "uint256"
        }
      ],
      "name": "TaskSubmitted",
      "type": "event"
    },
    {
      "inputs": [],
      "name": "BID_WINDOW",
      "outputs": [
        {
          "internalType": "uint256",
          "name": "",
          "type": "uint256"
        }
      ],
      "stateMutability": "view",
      "type": "function"
    },
    {
      "inputs": [],
      "name": "DEFAULT_EXECUTE_GRACE",
      "outputs": [
        {
          "internalType": "uint256",
          "name": "",
          "type": "uint256"
        }
      ],
      "stateMutability": "view",
      "type": "function"
    },
    {
      "inputs": [],
      "name": "MAX_BIDDERS",
      "outputs": [
        {
          "internalType": "uint256",
          "name": "",
          "type": "uint256"
        }
      ],
      "stateMutability": "view",
      "type": "function"
    },
    {
      "inputs": [],
      "name": "MAX_DESCRIPTION_LENGTH",
      "outputs": [
        {
          "internalType": "uint256",
          "name": "",
          "type": "uint256"
        }
      ],
      "stateMutability": "view",
      "type": "function"
    },
    {
      "inputs": [],
      "name": "REVEAL_WINDOW",
      "outputs": [
        {
          "internalType": "uint256",
          "name": "",
          "type": "uint256"
        }
      ],
      "stateMutability": "view",
      "type": "function"
    },
    {
      "inputs": [],
      "name": "TASK_FEE_BPS",
      "outputs": [
        {
          "internalType": "uint256",
          "name": "",
          "type": "uint256"
        }
      ],
      "stateMutability": "view",
      "type": "function"
    },
    {
      "inputs": [
        {
          "internalType": "uint256",
          "name": "",
          "type": "uint256"
        },
        {
          "internalType": "address",
          "name": "",
          "type": "address"
        }
      ],
      "name": "bidCommitments",
      "outputs": [
        {
          "internalType": "bytes32",
          "name": "commitment",
          "type": "bytes32"
        },
        {
          "internalType": "uint256",
          "name": "revealedAmount",
          "type": "uint256"
        },
        {
          "internalType": "bool",
          "name": "revealed",
          "type": "bool"
        },
        {
          "internalType": "uint256",
          "name": "collateral",
          "type": "uint256"
        }
      ],
      "stateMutability": "view",
      "type": "function"
    },
    {
      "inputs": [],
      "name": "claimRefund",
      "outputs": [],
      "stateMutability": "nonpayable",
      "type": "function"
    },
    {
      "inputs": [
        {
          "internalType": "uint256",
          "name": "taskId",
          "type": "uint256"
        }
      ],
      "name": "clearAuction",
      "outputs": [],
      "stateMutability": "nonpayable",
      "type": "function"
    },
    {
      "inputs": [],
      "name": "getActiveTasks",
      "outputs": [
        {
          "internalType": "uint256[]",
          "name": "",
          "type": "uint256[]"
        }
      ],
      "stateMutability": "view",
      "type": "function"
    },
    {
      "inputs": [
        {
          "internalType": "uint256",
          "name": "taskId",
          "type": "uint256"
        },
        {
          "internalType": "address",
          "name": "bidder",
          "type": "address"
        }
      ],
      "name": "getBid",
      "outputs": [
        {
          "components": [
            {
              "internalType": "bytes32",
              "name": "commitment",
              "type": "bytes32"
            },
            {
              "internalType": "uint256",
              "name": "revealedAmount",
              "type": "uint256"
            },
            {
              "internalType": "bool",
              "name": "revealed",
              "type": "bool"
            },
            {
              "internalType": "uint256",
              "name": "collateral",
              "type": "uint256"
            }
          ],
          "internalType": "struct AuctionHouse.BidCommitment",
          "name": "",
          "type": "tuple"
        }
      ],
      "stateMutability": "view",
      "type": "function"
    },
    {
      "inputs": [
        {
          "internalType": "uint256",
          "name": "taskId",
          "type": "uint256"
        }
      ],
      "name": "getTask",
      "outputs": [
        {
          "components": [
            {
              "internalType": "uint256",
              "name": "id",
              "type": "uint256"
            },
            {
              "internalType": "address",
              "name": "submitter",
              "type": "address"
            },
            {
              "internalType": "string",
              "name": "description",
              "type": "string"
            },
            {
              "internalType": "uint256",
              "name": "computeUnitsEstimate",
              "type": "uint256"
            },
            {
              "internalType": "uint256",
              "name": "difficultyScore",
              "type": "uint256"
            },
            {
              "internalType": "uint256",
              "name": "reservePrice",
              "type": "uint256"
            },
            {
              "internalType": "uint256",
              "name": "taskFee",
              "type": "uint256"
            },
            {
              "internalType": "uint256",
              "name": "bidDeadline",
              "type": "uint256"
            },
            {
              "internalType": "uint256",
              "name": "revealDeadline",
              "type": "uint256"
            },
            {
              "internalType": "uint256",
              "name": "executeDeadline",
              "type": "uint256"
            },
            {
              "internalType": "enum AuctionHouse.TaskState",
              "name": "state",
              "type": "uint8"
            },
            {
              "internalType": "address",
              "name": "winner",
              "type": "address"
            },
            {
              "internalType": "uint256",
              "name": "winningBid",
              "type": "uint256"
            },
            {
              "internalType": "uint256",
              "name": "highestBid",
              "type": "uint256"
            },
            {
              "internalType": "uint256",
              "name": "computeUnitsUsed",
              "type": "uint256"
            },
            {
              "internalType": "string",
              "name": "storagePointer",
              "type": "string"
            },
            {
              "internalType": "bytes32",
              "name": "outputHash",
              "type": "bytes32"
            }
          ],
          "internalType": "struct AuctionHouse.Task",
          "name": "",
          "type": "tuple"
        }
      ],
      "stateMutability": "view",
      "type": "function"
    },
    {
      "inputs": [
        {
          "internalType": "uint256",
          "name": "taskId",
          "type": "uint256"
        }
      ],
      "name": "getTaskBidders",
      "outputs": [
        {
          "internalType": "address[]",
          "name": "",
          "type": "address[]"
        }
      ],
      "stateMutability": "view",
      "type": "function"
    },
    {
      "inputs": [],
      "name": "owner",
      "outputs": [
        {
          "internalType": "address",
          "name": "",
          "type": "address"
        }
      ],
      "stateMutability": "view",
      "type": "function"
    },
    {
      "inputs": [
        {
          "internalType": "address",
          "name": "",
          "type": "address"
        }
      ],
      "name": "pendingRefunds",
      "outputs": [
        {
          "internalType": "uint256",
          "name": "",
          "type": "uint256"
        }
      ],
      "stateMutability": "view",
      "type": "function"
    },
    {
      "inputs": [
        {
          "internalType": "uint256",
          "name": "taskId",
          "type": "uint256"
        },
        {
          "internalType": "bytes32",
          "name": "commitment",
          "type": "bytes32"
        }
      ],
      "name": "placeBid",
      "outputs": [],
      "stateMutability": "payable",
      "type": "function"
    },
    {
      "inputs": [],
      "name": "protocolFees",
      "outputs": [
        {
          "internalType": "uint256",
          "name": "",
          "type": "uint256"
        }
      ],
      "stateMutability": "view",
      "type": "function"
    },
    {
      "inputs": [
        {
          "internalType": "uint256",
          "name": "taskId",
          "type": "uint256"
        }
      ],
      "name": "refundExpiredTask",
      "outputs": [],
      "stateMutability": "nonpayable",
      "type": "function"
    },
    {
      "inputs": [],
      "name": "renounceOwnership",
      "outputs": [],
      "stateMutability": "nonpayable",
      "type": "function"
    },
    {
      "inputs": [],
      "name": "reservePricePerUnit",
      "outputs": [
        {
          "internalType": "uint256",
          "name": "",
          "type": "uint256"
        }
      ],
      "stateMutability": "view",
      "type": "function"
    },
    {
      "inputs": [
        {
          "internalType": "uint256",
          "name": "taskId",
          "type": "uint256"
        },
        {
          "internalType": "uint256",
          "name": "amount",
          "type": "uint256"
        },
        {
          "internalType": "bytes32",
          "name": "salt",
          "type": "bytes32"
        }
      ],
      "name": "revealBid",
      "outputs": [],
      "stateMutability": "nonpayable",
      "type": "function"
    },
    {
      "inputs": [
        {
          "internalType": "uint256",
          "name": "_price",
          "type": "uint256"
        }
      ],
      "name": "setReservePricePerUnit",
      "outputs": [],
      "stateMutability": "nonpayable",
      "type": "function"
    },
    {
      "inputs": [
        {
          "internalType": "address",
          "name": "_vault",
          "type": "address"
        }
      ],
      "name": "setStakeVault",
      "outputs": [],
      "stateMutability": "nonpayable",
      "type": "function"
    },
    {
      "inputs": [
        {
          "internalType": "uint256",
          "name": "taskId",
          "type": "uint256"
        },
        {
          "internalType": "uint256",
          "name": "efficiencyScore",
          "type": "uint256"
        }
      ],
      "name": "settleWithScore",
      "outputs": [],
      "stateMutability": "nonpayable",
      "type": "function"
    },
    {
      "inputs": [],
      "name": "stakeVault",
      "outputs": [
        {
          "internalType": "contract IStakeVault",
          "name": "",
          "type": "address"
        }
      ],
      "stateMutability": "view",
      "type": "function"
    },
    {
      "inputs": [
        {
          "internalType": "uint256",
          "name": "taskId",
          "type": "uint256"
        }
      ],
      "name": "startRevealPhase",
      "outputs": [],
      "stateMutability": "nonpayable",
      "type": "function"
    },
    {
      "inputs": [
        {
          "internalType": "uint256",
          "name": "taskId",
          "type": "uint256"
        },
        {
          "internalType": "string",
          "name": "storagePointer",
          "type": "string"
        },
        {
          "internalType": "bytes32",
          "name": "outputHash",
          "type": "bytes32"
        },
        {
          "internalType": "uint256",
          "name": "computeUnitsUsed",
          "type": "uint256"
        }
      ],
      "name": "submitResult",
      "outputs": [],
      "stateMutability": "nonpayable",
      "type": "function"
    },
    {
      "inputs": [
        {
          "internalType": "string",
          "name": "description",
          "type": "string"
        },
        {
          "internalType": "uint256",
          "name": "computeUnitsEstimate",
          "type": "uint256"
        },
        {
          "internalType": "uint256",
          "name": "difficultyScore",
          "type": "uint256"
        }
      ],
      "name": "submitTask",
      "outputs": [],
      "stateMutability": "payable",
      "type": "function"
    },
    {
      "inputs": [
        {
          "internalType": "uint256",
          "name": "",
          "type": "uint256"
        },
        {
          "internalType": "uint256",
          "name": "",
          "type": "uint256"
        }
      ],
      "name": "taskBidders",
      "outputs": [
        {
          "internalType": "address",
          "name": "",
          "type": "address"
        }
      ],
      "stateMutability": "view",
      "type": "function"
    },
    {
      "inputs": [],
      "name": "taskCount",
      "outputs": [
        {
          "internalType": "uint256",
          "name": "",
          "type": "uint256"
        }
      ],
      "stateMutability": "view",
      "type": "function"
    },
    {
      "inputs": [
        {
          "internalType": "uint256",
          "name": "",
          "type": "uint256"
        }
      ],
      "name": "tasks",
      "outputs": [
        {
          "internalType": "uint256",
          "name": "id",
          "type": "uint256"
        },
        {
          "internalType": "address",
          "name": "submitter",
          "type": "address"
        },
        {
          "internalType": "string",
          "name": "description",
          "type": "string"
        },
        {
          "internalType": "uint256",
          "name": "computeUnitsEstimate",
          "type": "uint256"
        },
        {
          "internalType": "uint256",
          "name": "difficultyScore",
          "type": "uint256"
        },
        {
          "internalType": "uint256",
          "name": "reservePrice",
          "type": "uint256"
        },
        {
          "internalType": "uint256",
          "name": "taskFee",
          "type": "uint256"
        },
        {
          "internalType": "uint256",
          "name": "bidDeadline",
          "type": "uint256"
        },
        {
          "internalType": "uint256",
          "name": "revealDeadline",
          "type": "uint256"
        },
        {
          "internalType": "uint256",
          "name": "executeDeadline",
          "type": "uint256"
        },
        {
          "internalType": "enum AuctionHouse.TaskState",
          "name": "state",
          "type": "uint8"
        },
        {
          "internalType": "address",
          "name": "winner",
          "type": "address"
        },
        {
          "internalType": "uint256",
          "name": "winningBid",
          "type": "uint256"
        },
        {
          "internalType": "uint256",
          "name": "highestBid",
          "type": "uint256"
        },
        {
          "internalType": "uint256",
          "name": "computeUnitsUsed",
          "type": "uint256"
        },
        {
          "internalType": "string",
          "name": "storagePointer",
          "type": "string"
        },
        {
          "internalType": "bytes32",
          "name": "outputHash",
          "type": "bytes32"
        }
      ],
      "stateMutability": "view",
      "type": "function"
    },
    {
      "inputs": [],
      "name": "totalTasksCompleted",
      "outputs": [
        {
          "internalType": "uint256",
          "name": "",
          "type": "uint256"
        }
      ],
      "stateMutability": "view",
      "type": "function"
    },
    {
      "inputs": [
        {
          "internalType": "address",
          "name": "newOwner",
          "type": "address"
        }
      ],
      "name": "transferOwnership",
      "outputs": [],
      "stateMutability": "nonpayable",
      "type": "function"
    },
    {
      "inputs": [
        {
          "internalType": "address",
          "name": "to",
          "type": "address"
        }
      ],
      "name": "withdrawTreasury",
      "outputs": [],
      "stateMutability": "nonpayable",
      "type": "function"
    },
    {
      "stateMutability": "payable",
      "type": "receive"
    }
  ],
  "bytecode": "0x6080346100ff57601f612caf38819003918201601f19168301916001600160401b03831184841017610103578084926020946040528339810103126100ff57516001600160a01b038116908190036100ff5733156100ec575f8054336001600160a01b0319821681178355604051939290916001600160a01b0316907f8be0079c531659141344cd1fd0a4f28419497f9722a3daafe3b4186f6b6457e09080a360017f9b779b17422d0df92223018b32b4d1fa46e071723d6817e2486d003becc55f005564e8d4a51000600855600980546001600160a01b031916919091179055612b9790816101188239f35b631e4fbdf760e01b5f525f60045260245ffd5b5f80fd5b634e487b7160e01b5f52604160045260245ffdfe60a0604052600436101561001a575b3615610018575f80fd5b005b5f5f3560e01c80630f4d515214611f44578063108ab45e14611f2757806317e931cf14611f0c5780631ad8b03b14611eef5780631d65e77e14611c7357806323ad6e1a14611c585780632d78833314611c305780632df83e0614611acd57806335d7914f14611ab05780634cc4f50d14611a945780634d287e4914611a765780634d380a0d14611a4b57806354c5193e14611a26578063564e27ee146119ba5780635a1a42831461196f5780636127f246146117be57806366ab1d52146114c1578063715018a6146114675780638d9776721461130b5780638da5cb5b146112e45780639201ea0a146112c75780639a29c29414610fbd578063a5fec13214610f04578063a8d93dea14610e61578063b5545a3c14610d7b578063b613b11414610d42578063b6cb58a514610d24578063c0d1a21b14610656578063e66546a914610442578063e7067c4914610425578063eba1b60b14610374578063f2fde38b146102ee578063f36ba4d81461029d5763f86c9e9a1461019b575061000e565b3461029a57602036600319011261029a576101b461200c565b6101bc6128d3565b6101c46128f9565b6001600160a01b03166101d8811515612894565b60075490811561025557828080938193826007555af16101f66121dc565b50156102105760015f516020612b425f395f51905f525580f35b60405162461bcd60e51b815260206004820152601c60248201527f41483a207472656173757279207472616e73666572206661696c6564000000006044820152606490fd5b60405162461bcd60e51b815260206004820152601760248201527f41483a206e6f206665657320746f2077697468647261770000000000000000006044820152606490fd5b80fd5b503461029a57602036600319011261029a576102b761200c565b6102bf6128d3565b6001600160a01b03166102d3811515612894565b6bffffffffffffffffffffffff60a01b600954161760095580f35b503461029a57602036600319011261029a5761030861200c565b6103106128d3565b6001600160a01b031680156103605781546001600160a01b03198116821783556001600160a01b03167f8be0079c531659141344cd1fd0a4f28419497f9722a3daafe3b4186f6b6457e08380a380f35b631e4fbdf760e01b82526004829052602482fd5b503461029a57604036600319011261029a576040610390611ff6565b91806060835161039f816120b4565b8281528260208201528285820152015260043581526003602052209060018060a01b03165f52602052608060405f206040516103da816120b4565b8154918282526001810154602083019081526060600360ff60028501541693604086019415158552015493019283526040519384525160208401525115156040830152516060820152f35b503461029a578060031936011261029a57602060405161012c8152f35b503461029a57602036600319011261029a5760043561045f6128f9565b80825260016020526040822080541561064757600a810154839160ff82166006811015806106335781158015610627575b8061061a575b1561050a57505050505060015b156104c5576104b190612931565b60015f516020612b425f395f51905f525580f35b60405162461bcd60e51b815260206004820152601b60248201527f41483a207461736b206e6f7420726566756e6461626c652079657400000000006044820152606490fd5b610606579060028693921490816105f8575b50610529575b50506104a3565b83825260036020818152604080852060089490941c6001600160a01b03165f8181529490925290922001805492935091908161056d575b505050506001825f610522565b6009546001600160a01b031691823b156105f45760a485928360405195869485936344ac143d60e01b85528b6004860152602485015260448401528160648401528160848401525af19081156105e95783916105d0575b505055815f8080610560565b816105da916120d0565b6105e557815f6105c4565b5080fd5b6040513d85823e3d90fd5b8480fd5b60099150015442115f61051c565b634e487b7160e01b86526021600452602486fd5b5060088301544211610496565b50508560018214610490565b634e487b7160e01b87526021600452602487fd5b63c325ae3360e01b8352600483fd5b50606036600319011261029a5760043567ffffffffffffffff81116105e557610683903690600401612192565b60243561068e6128f9565b8015610cdf576001604435101580610cd2575b15610c8d578115610c50576104008211610c0b57600854908181029181830403610bf7576064820282810460641483151715610be3576127109004926106e78484612411565b91823410610bd4576106fb85600754612411565b60075561070960055461281f565b948560055561012c420190814211610bc0576101e0420192838311610bac57610564420194858511610b98578a6040519a6107438c612083565b8a8c523360208d0152610755836121c0565b9261076360405194856120d0565b8084523681830111610b945780602092838601378301015260408a0152606089015260443560808901528560a089015260c088015260e0870152610100860152610120850152846101408501528461016085015284610180850152846101a0850152846101c08501526020936040516107dc86826120d0565b8681526101e082015285610200820152838652600185526040862090805182556001820160018060a01b036020830151166bffffffffffffffffffffffff60a01b825416179055604081015180519067ffffffffffffffff8211610b80576108548261084b600287015461204b565b60028701612845565b8790601f8311600114610b135761088292918a9183610a74575b50508160011b915f199060031b1c19161790565b60028301555b606081015160038301556080810151600483015560a0810151600583015560c0810151600683015560e0810151600783015561010081015160088301556101208101516009830155600a82016101408201516006811015610aff578154610160840151610100600160a81b0360089190911b1660ff929092166001600160a81b031990911617179055610180810151600b8301556101a0810151600c8301556101c0810151600d830155600e82016101e082015180519067ffffffffffffffff8211610aeb57908291610969826109638d999897965461204b565b85612845565b8990601f8311600114610a7f5782600f9593610200959361099e938b92610a745750508160011b915f199060031b1c19161790565b90555b0151910155803411610a0a575b508290526001835260076040852001549060405193604435855284015260408301527f52f7cb98790ded11d3debb59e34f88e3e29eff7aa695c59aa8fe20c7c12457bd60603393a360015f516020612b425f395f51905f525580f35b8180610a178193346123f0565b335af1610a226121dc565b5015610a2f57835f6109ae565b60405162461bcd60e51b815260048101849052601d60248201527f41483a206f7665727061796d656e7420726566756e64206661696c65640000006044820152606490fd5b015190505f8061086e565b8388528a88209190601f198416895b8d828210610ad2575050926001928592600f9896610200989610610aba575b505050811b0190556109a1565b01515f1960f88460031b161c191690555f8080610aad565b8484015186558f9b506001909501949384019301610a8e565b634e487b7160e01b8a52604160045260248afd5b634e487b7160e01b89526021600452602489fd5b9190600285018a52888a20908a935b8a601f1985168610610b6757506001945083601f19811610610b4f575b505050811b016002830155610888565b01515f1960f88460031b161c191690555f8080610b3f565b8282015184559485019460019093019290910190610b22565b634e487b7160e01b89526041600452602489fd5b8280fd5b634e487b7160e01b8b52601160045260248bfd5b634e487b7160e01b8a52601160045260248afd5b634e487b7160e01b89526011600452602489fd5b630e3b41b560e31b8752600487fd5b634e487b7160e01b86526011600452602486fd5b634e487b7160e01b85526011600452602485fd5b60405162461bcd60e51b815260206004820152601860248201527f41483a206465736372697074696f6e20746f6f206c6f6e6700000000000000006044820152606490fd5b60405162461bcd60e51b815260206004820152601560248201527420a41d1032b6b83a3c903232b9b1b934b83a34b7b760591b6044820152606490fd5b60405162461bcd60e51b815260206004820152601b60248201527f41483a20646966666963756c7479206f7574206f662072616e676500000000006044820152606490fd5b50606460443511156106a1565b60405162461bcd60e51b815260206004820152601c60248201527f41483a20696e76616c696420636f6d7075746520657374696d617465000000006044820152606490fd5b503461029a578060031936011261029a576020600554604051908152f35b503461029a57602036600319011261029a576020906040906001600160a01b03610d6a61200c565b168152600483522054604051908152f35b503461029a578060031936011261029a57610d946128f9565b338152600460205260408120548015610e245781808080933382526004602052816040812055335af1610dc56121dc565b5015610ddf5760015f516020612b425f395f51905f525580f35b60405162461bcd60e51b815260206004820152601a60248201527f41483a20726566756e64207472616e73666572206661696c65640000000000006044820152606490fd5b60405162461bcd60e51b815260206004820152601560248201527410520e881b9bc81c195b991a5b99c81c99599d5b99605a1b6044820152606490fd5b503461029a57602036600319011261029a576004358152600160205260408120805415610ef557600a81019060ff8254166006811015610ee15780610ec9575060070154421115610eba57805460ff1916600117905580f35b63a41bfbc760e01b8252600482fd5b83610edf60249263683f44bb60e11b8352611fc5565bfd5b634e487b7160e01b84526021600452602484fd5b63c325ae3360e01b8252600482fd5b503461029a57602036600319011261029a576004358152600260205260408120604051908160208254918281520190819285526020852090855b818110610f9e5750505082610f549103836120d0565b604051928392602084019060208552518091526040840192915b818110610f7c575050500390f35b82516001600160a01b0316845285945060209384019390920191600101610f6e565b82546001600160a01b0316845260209093019260019283019201610f3e565b503461029a57608036600319011261029a576004359060243567ffffffffffffffff81116105e557610ff3903690600401612192565b9092606435936110016128f9565b818452600160205260408420948554156112b857600a8601805460ff811660068110156112a4576002810361128e575060081c6001600160a01b0316330361127f576009870154421161127057841561122b5781156111ed57600e87019667ffffffffffffffff86116111d9576110828661107c8a5461204b565b8a612845565b8697601f8711600114611150578391600d916110d889808c9d7f32c2ebf2cc0645d5c0461b70e5d8229b305bbe469f02e9729fe136a16500e2d29b9c9d91611145575b508160011b915f199060031b1c19161790565b90555b604435600f8201550155600360ff198254161790556110fb60065461281f565b6006558460405192604084528160408501526060840137856060868401015260208201526060813395601f80199101168101030190a360015f516020612b425f395f51905f525580f35b90508901355f6110c5565b80885260208820601f198816895b8181106111c1575091859391899a9b7f32c2ebf2cc0645d5c0461b70e5d8229b305bbe469f02e9729fe136a16500e2d2999a600d95106111a8575b505060018a811b0190556110db565b8801355f1960038d901b60f8161c191690555f80611199565b878c0135835560209b8c019b6001909301920161115e565b634e487b7160e01b87526041600452602487fd5b60405162461bcd60e51b815260206004820152601660248201527541483a207a65726f20636f6d7075746520756e69747360501b6044820152606490fd5b60405162461bcd60e51b815260206004820152601960248201527f41483a20656d7074792073746f7261676520706f696e746572000000000000006044820152606490fd5b6384ad989b60e01b8652600486fd5b6330c6392160e11b8652600486fd5b87610edf60249263683f44bb60e11b8352611fc5565b634e487b7160e01b88526021600452602488fd5b63c325ae3360e01b8552600485fd5b503461029a578060031936011261029a5760206040516104008152f35b503461029a578060031936011261029a57546040516001600160a01b039091168152602090f35b503461029a57602036600319011261029a5760043581526001602081905260409091208054918101546001600160a01b03168161134a600282016120f2565b916003820154926004830154600584015460068501546007860154600887015491600988015493600a89015495600b8a015497600c8b015499600d8c01549b600e01611395906120f2565b9d600f01549e60405160805260805152608051602001526080516040016102209052608051610220016113c791611fa1565b9a608051606001526080516080015260805160a0015260805160c0015260805160e00152608051610100015260805161012001526080516101400160ff82169061141091611fd3565b600160a01b600190039060081c16608051610160015260805161018001526080516101a001526080516101c0015260805181036080516101e0015261145491611fa1565b9060805161020001526080519003608051f35b503461029a578060031936011261029a576114806128d3565b80546001600160a01b03198116825581906001600160a01b03167f8be0079c531659141344cd1fd0a4f28419497f9722a3daafe3b4186f6b6457e08280a380f35b50604036600319011261029a576024356004356114dc6128f9565b8083526001602052604083208054156117af5760ff600a82015416600681101561179b5780611785575060078101544211611776576009546040516305c1c07160e41b815233600482015290602090829060249082906001600160a01b03165afa90811561176b578591611730575b5015611721576005015434106117125780835260026020526032604084205410156116cd57808352600360209081526040808520335f908152925290205461169057604051611599816120b4565b828152600360208201858152604083018681526060840191348352858852836020526040882060018060a01b0333165f5260205260405f2094518555516001850155600284019051151560ff80198354169116179055519101558083526002602052604083208054906801000000000000000082101561167c579061162391600182018155612022565b81549060031b9033821b9160018060a01b03901b19161790556040519182527f8f88859fb40f8fd203fb728f30d86a47819ece47e647bf37001c2b204d74fd0460203393a360015f516020612b425f395f51905f525580f35b634e487b7160e01b85526041600452602485fd5b60405162461bcd60e51b815260206004820152601560248201527410520e88185b1c9958591e4818dbdb5b5a5d1d1959605a1b6044820152606490fd5b60405162461bcd60e51b815260206004820152601760248201527f41483a206d6178206269646465727320726561636865640000000000000000006044820152606490fd5b633a23d82560e01b8352600483fd5b630e5759bd60e11b8452600484fd5b90506020813d602011611763575b8161174b602093836120d0565b810103126105f4575180151581036105f4575f61154b565b3d915061173e565b6040513d87823e3d90fd5b63a46e86a160e01b8452600484fd5b84610edf60249263683f44bb60e11b8352611fc5565b634e487b7160e01b85526021600452602485fd5b63c325ae3360e01b8452600484fd5b503461029a578060031936011261029a576005548160015b828111156118f857506118016117eb8261282d565b916117f960405193846120d0565b80835261282d565b602082019290601f19013684378360015b8281111561185f5750505090604051928392602084019060208552518091526040840192915b818110611846575050500390f35b8251845285945060209384019390920191600101611838565b808652600160205260ff600a60408820015416600681101590816112a45780159182156118eb575b82156118da575b50506118a3575b61189e9061281f565b611812565b6118ac8261281f565b9184518110156118c65760051b8401602001819052611895565b634e487b7160e01b87526032600452602487fd5b909150610633576002145f8061188e565b5060018114915087611887565b808452600160205260ff600a6040862001541660068110159081610606578015918215611962575b8215611951575b505061193c575b6119379061281f565b6117d6565b906119496119379161281f565b91905061192e565b90915061179b576002145f80611927565b5060018114915085611920565b503461029a5761197e36611fe0565b9190815260026020526040812090815483101561029a5760206119a18484612022565b905460405160039290921b1c6001600160a01b03168152f35b503461029a57604036600319011261029a5760406119d6611ff6565b9160043581526003602052209060018060a01b03165f52602052608060405f20805490600181015490600360ff600283015416910154916040519384526020840152151560408301526060820152f35b503461029a57602036600319011261029a57611a406128f9565b6104b160043561241e565b503461029a57606036600319011261029a57611a656128f9565b6104b160443560243560043561220b565b503461029a578060031936011261029a576020600854604051908152f35b503461029a578060031936011261029a57602060405160328152f35b503461029a578060031936011261029a5760206040516103848152f35b5034611bf157611adc36611fe0565b611ae46128d3565b611aec6128f9565b815f52600160205260405f20600a81019060ff8254166006811015611c1c5760038103611c04575060648311611bf557815460ff191660041791829055600954600b820154600d909201549260081c6001600160a01b03908116929116803b15611bf1575f928360a49260405196879586946344ac143d60e01b86528b60048701526024860152604485015288606485015260848401525af18015611be657611bd0575b5060207f2b80a67d12a47708557e57b222c442e1b48717d479ce938bd984b01fe05b6d8e91604051908152a260015f516020612b425f395f51905f525580f35b611bdd9193505f906120d0565b5f916020611b90565b6040513d5f823e3d90fd5b5f80fd5b63c3d20c6b60e01b5f5260045ffd5b63683f44bb60e11b5f52611c1790611fc5565b60245ffd5b634e487b7160e01b5f52602160045260245ffd5b34611bf1575f366003190112611bf1576009546040516001600160a01b039091168152602090f35b34611bf1575f366003190112611bf157602060405160648152f35b34611bf1576020366003190112611bf1575f610200604051611c9481612083565b828152826020820152606060408201528260608201528260808201528260a08201528260c08201528260e08201528261010082015282610120820152826101408201528261016082015282610180820152826101a0820152826101c082015260606101e082015201526004355f52600160205260405f2060405190611d1882612083565b8054825260018101546001600160a01b03166020830152611d3b600282016120f2565b60408301526003810154606083015260048101546080830152600581015460a0830152600681015460c0830152600781015460e083015260088101546101008301526009810154610120830152600a8101549060ff8216916006831015611c1c57600f9261014085015260018060a01b039060081c16610160840152600b810154610180840152600c8101546101a0840152600d8101546101c0840152611de4600e82016120f2565b6101e084015201546102008201526040518091602082528051602083015260018060a01b036020820151166040830152610200611ee2611e3560408401516102206060870152610240860190611fa1565b60608401516080860152608084015160a086015260a084015160c086015260c084015160e086015260e0840151610100860152610100840151610120860152610120840151610140860152611e94610140850151610160870190611fd3565b60018060a01b03610160850151166101808601526101808401516101a08601526101a08401516101c08601526101c08401516101e08601526101e0840151601f198683030184870152611fa1565b9101516102208301520390f35b34611bf1575f366003190112611bf1576020600754604051908152f35b34611bf1575f366003190112611bf157602060405160b48152f35b34611bf1575f366003190112611bf1576020600654604051908152f35b34611bf1576020366003190112611bf157600435611f606128d3565b8015611f6b57600855005b60405162461bcd60e51b815260206004820152600e60248201526d41483a207a65726f20707269636560901b6044820152606490fd5b805180835260209291819084018484015e5f828201840152601f01601f1916010190565b6006811015611c1c57600452565b906006821015611c1c5752565b6040906003190112611bf1576004359060243590565b602435906001600160a01b0382168203611bf157565b600435906001600160a01b0382168203611bf157565b8054821015612037575f5260205f2001905f90565b634e487b7160e01b5f52603260045260245ffd5b90600182811c92168015612079575b602083101461206557565b634e487b7160e01b5f52602260045260245ffd5b91607f169161205a565b610220810190811067ffffffffffffffff8211176120a057604052565b634e487b7160e01b5f52604160045260245ffd5b6080810190811067ffffffffffffffff8211176120a057604052565b90601f8019910116810190811067ffffffffffffffff8211176120a057604052565b9060405191825f8254926121058461204b565b8084529360018116908115612170575060011461212c575b5061212a925003836120d0565b565b90505f9291925260205f20905f915b81831061215457505090602061212a928201015f61211d565b602091935080600191548385890101520191019091849261213b565b90506020925061212a94915060ff191682840152151560051b8201015f61211d565b9181601f84011215611bf15782359167ffffffffffffffff8311611bf15760208381860195010111611bf157565b67ffffffffffffffff81116120a057601f01601f191660200190565b3d15612206573d906121ed826121c0565b916121fb60405193846120d0565b82523d5f602084013e565b606090565b9091815f52600160205260405f208054156123e15760ff600a820154166006811015611c1c5760018103611c045750600881015442116123d257825f52600360205260405f2060018060a01b0333165f5260205260405f20908154801561238d57600283019360ff85541661237e5760405160208101918883526040820152604081526122996060826120d0565b5190200361236f5760050154841061230457836003820154106122f557600184910155600160ff198254161790556040519182527f86d2fbc9069d34216ebc65b38ce840528d3f8cac0c86d2aaa7ab6a9db8bc35d360203393a3565b633a23d82560e01b5f5260045ffd5b5f935083925082915060038291018181549155335af16123226121dc565b501561232a57565b60405162461bcd60e51b815260206004820152601f60248201527f41483a2062656c6f772d7265736572766520726566756e64206661696c6564006044820152606490fd5b635054097b60e01b5f5260045ffd5b63a89ac15160e01b5f5260045ffd5b60405162461bcd60e51b815260206004820152601760248201527f41483a206e6f20636f6d6d69746d656e7420666f756e640000000000000000006044820152606490fd5b6340d8392160e11b5f5260045ffd5b63c325ae3360e01b5f5260045ffd5b919082039182116123fd57565b634e487b7160e01b5f52601160045260245ffd5b919082018092116123fd57565b805f52600160205260405f208054156123e157600a81019160ff8354166006811015611c1c5760018114908115612816575b50156127c75760088201544211156127b857805f52600260205260405f20915f905f94600582015495865f9087545b8083106126fd575050506001600160a01b0384169384156126ec578254610100600160a81b03191660089190911b610100600160a81b0316178255839190600c840155600b830190878255600260ff19825416179055845f52600360205260405f20825f52602052600360405f2001908154905491828211612672575b505050505f5b845481101561260c57808361251960019388612022565b848060a01b0391549060031b1c161461260757845f52600360205260405f206125428288612022565b848060a01b0391549060031b1c16838060a01b03165f52602052600360405f200180549081612575575b50505b01612502565b5f90556125828288612022565b848060a01b0391549060031b1c165f52600460205260405f206125a6828254612411565b90555f516020612b225f395f51905f5260806125c2848a612022565b868060a01b0391549060031b1c16926040519081526040602082015260116040820152701b1bdcda5b99c8189a59081c99599d5b99607a1b6060820152a25f8061256c565b61256f565b5060099082847f9f3c3ff4a1001cd13c5caa3de24e63ba9f0c6010d7936e7df7c528b18b78af456040602096997f1e6182859bc69f51c8ce271c606ab10fe99a226a763a39fde4791d78fbe3b67a989954825191825288820152a30154604051908152a3565b8261268d5f516020612b225f395f51905f52946080946123f0565b9155835f52600460205260405f206126a6828254612411565b905560405190815260406020820152601860408201527f77696e6e65722065786365737320636f6c6c61746572616c00000000000000006060820152a2815f80806124fc565b5050505050905061212a9150612931565b919598875f94929452600360205260405f20612719888b612022565b905460039190911b1c6001600160a01b03165f90815260209190915260409020600281015460ff16156127aa576001015499828b111561278a57505082811115612783575b9791600161276c878a612022565b828060a01b0391549060031b1c16965b019161247f565b508161275e565b9690998a81959395116127a1575b5060019061277c565b99506001612798565b50989560019093919361277c565b63a41bfbc760e01b5f5260045ffd5b60405162461bcd60e51b815260206004820152602160248201527f41483a2063616e6e6f7420636c65617220696e2063757272656e7420737461746044820152606560f81b6064820152608490fd5b9050155f612450565b5f1981146123fd5760010190565b67ffffffffffffffff81116120a05760051b60200190565b601f821161285257505050565b5f5260205f20906020601f840160051c8301931061288a575b601f0160051c01905b81811061287f575050565b5f8155600101612874565b909150819061286b565b1561289b57565b60405162461bcd60e51b815260206004820152601060248201526f41483a207a65726f206164647265737360801b6044820152606490fd5b5f546001600160a01b031633036128e657565b63118cdaa760e01b5f523360045260245ffd5b60025f516020612b425f395f51905f5254146129225760025f516020612b425f395f51905f5255565b633ee5aeb560e01b5f5260045ffd5b805f52600160205260405f2090600a8201600560ff19825416179055805f52600260205260405f20905f5b8254811015612a4e57600190825f52600360205260405f2061297e8286612022565b848060a01b0391549060031b1c16838060a01b03165f52602052600360405f2001805490816129b0575b50500161295c565b5f90556129bd8286612022565b848060a01b0391549060031b1c165f52600460205260405f206129e1828254612411565b90555f516020612b225f395f51905f5260806129fd8488612022565b868060a01b0391549060031b1c169260405190815260406020820152601a60408201527f65787069726564207461736b2062696464657220726566756e640000000000006060820152a25f806129a8565b5090507f098446306d18a8ba797caf5ad3be836bc7fadb0fa82d207e934992497bdeaf6160206001600585015494015f8080808860018060a01b038654165af1612a966121dc565b5015612ab1575b546040519485526001600160a01b031693a3565b60018060a01b038154165f526004825260405f20612ad0868254612411565b905560018060a01b038154165f516020612b225f395f51905f52608060405188815260408682015260136040820152721d185cdac81c995cd95c9d99481c99599d5b99606a1b6060820152a2612a9d56fed75c4f3dc1e70c9ee11a10d2b5cb687d11fd2eee51e8bc2d3a82a3f9b829d2f19b779b17422d0df92223018b32b4d1fa46e071723d6817e2486d003becc55f00a2646970667358221220963b45c26b2676ccf83b09b6257e5f4473f4d614ebdc0feb88bce5fc62c2e4ce64736f6c634300081c0033",
  "linkReferences": {},
  "deployedLinkReferences": {}
}