{
  "_format": "hh-sol-artifact-1",
  "contractName": "StakeVault",
  "sourceName": "contracts/StakeVault.sol",
  "abi": [
    {
      "inputs": [
        {
          "internalType": "uint256",
          "name": "_minStakeAmount",
          "type": "uint256"
        }
      ],
      "stateMutability": "nonpayable",
      "type": "constructor"
    },
    {
      "inputs": [],
      "name": "AgentNotRegistered",
      "type": "error"
    },
    {
      "inputs": [],
      "name": "AlreadyRegistered",
      "type": "error"
    },
    {
      "inputs": [],
      "name": "InsufficientBalance",
      "type": "error"
    },
    {
      "inputs": [],
      "name": "InsufficientStake",
      "type": "error"
    },
    {
      "inputs": [],
      "name": "NotAuctionHouse",
      "type": "error"
    },
    {
      "inputs": [
        {
          "internalType": "address",
          "name": "owner",
          "type": "address"
        }
      ],
      "name": "OwnableInvalidOwner",
      "type": "error"
    },
    {
      "inputs": [
        {
          "internalType": "address",
          "name": "account",
          "type": "address"
        }
      ],
      "name": "OwnableUnauthorizedAccount",
      "type": "error"
    },
    {
      "inputs": [],
      "name": "ReentrancyGuardReentrantCall",
      "type": "error"
    },
    {
      "inputs": [],
      "name": "ZeroAddress",
      "type": "error"
    },
    {
      "anonymous": false,
      "inputs": [
        {
          "indexed": true,
          "internalType": "address",
          "name": "agent",
          "type": "address"
        }
      ],
      "name": "AgentRegistered",
      "type": "event"
    },
    {
      "anonymous": false,
      "inputs": [
        {
          "indexed": true,
          "internalType": "address",
          "name": "agent",
          "type": "address"
        },
        {
          "indexed": true,
          "internalType": "uint256",
          "name": "taskId",
          "type": "uint256"
        },
        {
          "indexed": false,
          "internalType": "uint256",
          "name": "slashAmount",
          "type": "uint256"
        },
        {
          "indexed": false,
          "internalType": "uint256",
          "name": "efficiencyScore",
          "type": "uint256"
        }
      ],
      "name": "AgentSlashed",
      "type": "event"
    },
    {
      "anonymous": false,
      "inputs": [
        {
          "indexed": true,
          "internalType": "address",
          "name": "agent",
          "type": "address"
        },
        {
          "indexed": false,
          "internalType": "uint256",
          "name": "amount",
          "type": "uint256"
        },
        {
          "indexed": false,
          "internalType": "uint256",
          "name": "totalStake",
          "type": "uint256"
        }
      ],
      "name": "AgentStaked",
      "type": "event"
    },
    {
      "anonymous": false,
      "inputs": [
        {
          "indexed": true,
          "internalType": "address",
          "name": "agent",
          "type": "address"
        },
        {
          "indexed": false,
          "internalType": "uint256",
          "name": "amount",
          "type": "uint256"
        }
      ],
      "name": "AgentUnstaked",
      "type": "event"
    },
    {
      "anonymous": false,
      "inputs": [
        {
          "indexed": false,
          "internalType": "uint256",
          "name": "amount",
          "type": "uint256"
        }
      ],
      "name": "BootstrapSubsidyFunded",
      "type": "event"
    },
    {
      "anonymous": false,
      "inputs": [
        {
          "indexed": false,
          "internalType": "uint256",
          "name": "amount",
          "type": "uint256"
        }
      ],
      "name": "BootstrapSubsidyWithdrawn",
      "type": "event"
    },
    {
      "anonymous": false,
      "inputs": [
        {
          "indexed": true,
          "internalType": "address",
          "name": "agent",
          "type": "address"
        },
        {
          "indexed": false,
          "internalType": "uint256",
          "name": "oldScore",
          "type": "uint256"
        },
        {
          "indexed": false,
          "internalType": "uint256",
          "name": "newScore",
          "type": "uint256"
        }
      ],
      "name": "EfficiencyScoreUpdated",
      "type": "event"
    },
    {
      "anonymous": false,
      "inputs": [
        {
          "indexed": true,
          "internalType": "address",
          "name": "previousOwner",
          "type": "address"
        },
        {
          "indexed": true,
          "internalType": "address",
          "name": "newOwner",
          "type": "address"
        }
      ],
      "name": "OwnershipTransferred",
      "type": "event"
    },
    {
      "anonymous": false,
      "inputs": [
        {
          "indexed": true,
          "internalType": "address",
          "name": "agent",
          "type": "address"
        },
        {
          "indexed": true,
          "internalType": "uint256",
          "name": "taskId",
          "type": "uint256"
        },
        {
          "indexed": false,
          "internalType": "uint256",
          "name": "reward",
          "type": "uint256"
        },
        {
          "indexed": false,
          "internalType": "uint256",
          "name": "efficiencyScore",
          "type": "uint256"
        }
      ],
      "name": "RewardDistributed",
      "type": "event"
    },
    {
      "inputs": [],
      "name": "CHALLENGER_TASK_THRESHOLD",
      "outputs": [
        {
          "internalType": "uint256",
          "name": "",
          "type": "uint256"
        }
      ],
      "stateMutability": "view",
      "type": "function"
    },
    {
      "inputs": [],
      "name": "EARLY_EPOCH_BONUS_BPS",
      "outputs": [
        {
          "internalType": "uint256",
          "name": "",
          "type": "uint256"
        }
      ],
      "stateMutability": "view",
      "type": "function"
    },
    {
      "inputs": [],
      "name": "EARLY_EPOCH_BONUS_TASKS",
      "outputs": [
        {
          "internalType": "uint256",
          "name": "",
          "type": "uint256"
        }
      ],
      "stateMutability": "view",
      "type": "function"
    },
    {
      "inputs": [],
      "name": "EARLY_SLASH_FLOOR_BPS",
      "outputs": [
        {
          "internalType": "uint256",
          "name": "",
          "type": "uint256"
        }
      ],
      "stateMutability": "view",
      "type": "function"
    },
    {
      "inputs": [],
      "name": "EFFICIENCY_THRESHOLD",
      "outputs": [
        {
          "internalType": "uint256",
          "name": "",
          "type": "uint256"
        }
      ],
      "stateMutability": "view",
      "type": "function"
    },
    {
      "inputs": [],
      "name": "EPOCH_SIZE",
      "outputs": [
        {
          "internalType": "uint256",
          "name": "",
          "type": "uint256"
        }
      ],
      "stateMutability": "view",
      "type": "function"
    },
    {
      "inputs": [],
      "name": "EWA_ALPHA_DEN",
      "outputs": [
        {
          "internalType": "uint256",
          "name": "",
          "type": "uint256"
        }
      ],
      "stateMutability": "view",
      "type": "function"
    },
    {
      "inputs": [],
      "name": "EWA_ALPHA_NUM",
      "outputs": [
        {
          "internalType": "uint256",
          "name": "",
          "type": "uint256"
        }
      ],
      "stateMutability": "view",
      "type": "function"
    },
    {
      "inputs": [],
      "name": "SLASH_SCALE_BPS_PER_EPOCH",
      "outputs": [
        {
          "internalType": "uint256",
          "name": "",
          "type": "uint256"
        }
      ],
      "stateMutability": "view",
      "type": "function"
    },
    {
      "inputs": [],
      "name": "addStake",
      "outputs": [],
      "stateMutability": "payable",
      "type": "function"
    },
    {
      "inputs": [
        {
          "internalType": "address",
          "name": "",
          "type": "address"
        }
      ],
      "name": "agents",
      "outputs": [
        {
          "internalType": "uint256",
          "name": "totalStake",
          "type": "uint256"
        },
        {
          "internalType": "uint256",
          "name": "lifetimeRewards",
          "type": "uint256"
        },
        {
          "internalType": "uint256",
          "name": "lifetimeSlashed",
          "type": "uint256"
        },
        {
          "internalType": "uint256",
          "name": "tasksCompleted",
          "type": "uint256"
        },
        {
          "internalType": "uint256",
          "name": "efficiencyScore",
          "type": "uint256"
        },
        {
          "internalType": "uint256",
          "name": "registeredAt",
          "type": "uint256"
        },
        {
          "internalType": "bool",
          "name": "registered",
          "type": "bool"
        }
      ],
      "stateMutability": "view",
      "type": "function"
    },
    {
      "inputs": [],
      "name": "auctionHouse",
      "outputs": [
        {
          "internalType": "address",
          "name": "",
          "type": "address"
        }
      ],
      "stateMutability": "view",
      "type": "function"
    },
    {
      "inputs": [],
      "name": "bootstrapSubsidy",
      "outputs": [
        {
          "internalType": "uint256",
          "name": "",
          "type": "uint256"
        }
      ],
      "stateMutability": "view",
      "type": "function"
    },
    {
      "inputs": [],
      "name": "currentEpoch",
      "outputs": [
        {
          "internalType": "uint256",
          "name": "",
          "type": "uint256"
        }
      ],
      "stateMutability": "view",
      "type": "function"
    },
    {
      "inputs": [],
      "name": "fundBootstrapSubsidy",
      "outputs": [],
      "stateMutability": "payable",
      "type": "function"
    },
    {
      "inputs": [
        {
          "internalType": "address",
          "name": "agent",
          "type": "address"
        }
      ],
      "name": "getAgentRecord",
      "outputs": [
        {
          "components": [
            {
              "internalType": "uint256",
              "name": "totalStake",
              "type": "uint256"
            },
            {
              "internalType": "uint256",
              "name": "lifetimeRewards",
              "type": "uint256"
            },
            {
              "internalType": "uint256",
              "name": "lifetimeSlashed",
              "type": "uint256"
            },
            {
              "internalType": "uint256",
              "name": "tasksCompleted",
              "type": "uint256"
            },
            {
              "internalType": "uint256",
              "name": "efficiencyScore",
              "type": "uint256"
            },
            {
              "internalType": "uint256",
              "name": "registeredAt",
              "type": "uint256"
            },
            {
              "internalType": "bool",
              "name": "registered",
              "type": "bool"
            }
          ],
          "internalType": "struct StakeVault.AgentRecord",
          "name": "",
          "type": "tuple"
        }
      ],
      "stateMutability": "view",
      "type": "function"
    },
    {
      "inputs": [
        {
          "internalType": "address[]",
          "name": "agentList",
          "type": "address[]"
        }
      ],
      "name": "getLeaderboard",
      "outputs": [
        {
          "internalType": "address[]",
          "name": "addrs",
          "type": "address[]"
        },
        {
          "internalType": "uint256[]",
          "name": "scores",
          "type": "uint256[]"
        },
        {
          "internalType": "uint256[]",
          "name": "tasks_",
          "type": "uint256[]"
        },
        {
          "internalType": "uint256[]",
          "name": "stakes",
          "type": "uint256[]"
        }
      ],
      "stateMutability": "view",
      "type": "function"
    },
    {
      "inputs": [
        {
          "internalType": "address",
          "name": "agent",
          "type": "address"
        }
      ],
      "name": "hasMinimumStake",
      "outputs": [
        {
          "internalType": "bool",
          "name": "",
          "type": "bool"
        }
      ],
      "stateMutability": "view",
      "type": "function"
    },
    {
      "inputs": [],
      "name": "minStakeAmount",
      "outputs": [
        {
          "internalType": "uint256",
          "name": "",
          "type": "uint256"
        }
      ],
      "stateMutability": "view",
      "type": "function"
    },
    {
      "inputs": [],
      "name": "owner",
      "outputs": [
        {
          "internalType": "address",
          "name": "",
          "type": "address"
        }
      ],
      "stateMutability": "view",
      "type": "function"
    },
    {
      "inputs": [
        {
          "internalType": "uint256",
          "name": "taskId",
          "type": "uint256"
        },
        {
          "internalType": "address",
          "name": "executor",
          "type": "address"
        },
        {
          "internalType": "uint256",
          "name": "bidAmount",
          "type": "uint256"
        },
        {
          "internalType": "uint256",
          "name": "efficiencyScore",
          "type": "uint256"
        },
        {
          "internalType": "uint256",
          "name": "computeUnitsUsed",
          "type": "uint256"
        }
      ],
      "name": "processTaskSettlement",
      "outputs": [],
      "stateMutability": "nonpayable",
      "type": "function"
    },
    {
      "inputs": [],
      "name": "registerAndStake",
      "outputs": [],
      "stateMutability": "payable",
      "type": "function"
    },
    {
      "inputs": [],
      "name": "renounceOwnership",
      "outputs": [],
      "stateMutability": "nonpayable",
      "type": "function"
    },
    {
      "inputs": [
        {
          "internalType": "address",
          "name": "_auctionHouse",
          "type": "address"
        }
      ],
      "name": "setAuctionHouse",
      "outputs": [],
      "stateMutability": "nonpayable",
      "type": "function"
    },
    {
      "inputs": [
        {
          "internalType": "uint256",
          "name": "_amount",
          "type": "uint256"
        }
      ],
      "name": "setMinStakeAmount",
      "outputs": [],
      "stateMutability": "nonpayable",
      "type": "function"
    },
    {
      "inputs": [],
      "name": "totalTasksSettled",
      "outputs": [
        {
          "internalType": "uint256",
          "name": "",
          "type": "uint256"
        }
      ],
      "stateMutability": "view",
      "type": "function"
    },
    {
      "inputs": [
        {
          "internalType": "address",
          "name": "newOwner",
          "type": "address"
        }
      ],
      "name": "transferOwnership",
      "outputs": [],
      "stateMutability": "nonpayable",
      "type": "function"
    },
    {
      "inputs": [
        {
          "internalType": "address",
          "name": "to",
          "type": "address"
        }
      ],
      "name": "withdrawBootstrapSubsidy",
      "outputs": [],
      "stateMutability": "nonpayable",
      "type": "function"
    },
    {
      "inputs": [
        {
          "internalType": "uint256",
          "name": "amount",
          "type": "uint256"
        }
      ],
      "name": "withdrawStake",
      "outputs": [],
      "stateMutability": "nonpayable",
      "type": "function"
    },
    {
      "stateMutability": "payable",
      "type": "receive"
    }
  ],
  "bytecode": "0x60803460cf57601f61137f38819003918201601f19168301916001600160401b0383118484101760d35780849260209460405283398101031260cf5751331560bc575f8054336001600160a01b0319821681178355604051939290916001600160a01b0316907f8be0079c531659141344cd1fd0a4f28419497f9722a3daafe3b4186f6b6457e09080a360017f9b779b17422d0df92223018b32b4d1fa46e071723d6817e2486d003becc55f005560045561129790816100e88239f35b631e4fbdf760e01b5f525f60045260245ffd5b5f80fd5b634e487b7160e01b5f52604160045260245ffdfe6080604052600436101561001a575b3615610018575f80fd5b005b5f3560e01c806220b31114610fd557806248e66714610fb957806325d5971f14610ed45780632bacc86b146109c957806344ac143d14610aef5780634832cdd914610ad45780635a627dbc14610a2f5780635c1c0710146109ce57806362656003146109c957806370032d6a146109ac578063715018a614610955578063721bd9511461093a578063766718081461091a5780637eb47448146108fe57806382e3b290146108e357806384d180ee146107ab5780638da5cb5b1461078457806390bcb78f1461069d57806396ff77e8146106825780639bfeacdb14610542578063d43803901461039f578063d7d74d6d14610383578063e76d895214610328578063ea8ba87c1461030b578063eb4af045146102a7578063ed9152c81461027f578063f188768414610262578063f2fde38b146101dd5763fd66091e0361000e57346101d95760203660031901126101d9576001600160a01b0361017c61103e565b165f52600160205260e060405f208054906001810154906002810154600382015460048301549160ff600660058601549501541694604051968752602087015260408601526060850152608084015260a0830152151560c0820152f35b5f80fd5b346101d95760203660031901126101d9576101f661103e565b6101fe6111e3565b6001600160a01b0316801561024f575f80546001600160a01b03198116831782556001600160a01b0316907f8be0079c531659141344cd1fd0a4f28419497f9722a3daafe3b4186f6b6457e09080a3005b631e4fbdf760e01b5f525f60045260245ffd5b346101d9575f3660031901126101d9576020600454604051908152f35b346101d9575f3660031901126101d9576005546040516001600160a01b039091168152602090f35b346101d95760203660031901126101d9576004356102c36111e3565b80156102ce57600455005b60405162461bcd60e51b815260206004820152601560248201527414d58e881e995c9bc81cdd185ad948185b5bdd5b9d605a1b6044820152606490fd5b346101d9575f3660031901126101d9576020600254604051908152f35b346101d95760203660031901126101d95761034161103e565b6103496111e3565b6001600160a01b03168015610374576bffffffffffffffffffffffff60a01b60055416176005555f80f35b63d92e233d60e01b5f5260045ffd5b346101d9575f3660031901126101d95760206040516107d08152f35b346101d95760203660031901126101d95760043567ffffffffffffffff81116101d957366023820112156101d95780600401359067ffffffffffffffff82116101d9576024810190602436918460051b0101116101d95761040761040283611157565b6110d5565b9082825261041483611157565b602083019390601f190136853761042a8161116f565b6104338261116f565b9161043d8161116f565b935f5b8281106104c557505050604051936080850190608086525180915260a0850195905f5b8181106104a65786806104a288610494896104868e8b8782036020890152611054565b908582036040870152611054565b908382036060850152611054565b0390f35b82516001600160a01b0316885260209788019790920191600101610463565b6001906001600160a01b036104e36104de838787611197565b6111bb565b165f528160205260405f206104fc6104de838787611197565b610506838b6111cf565b90848060a01b03169052600481015461051f83886111cf565b52600381015461052f83896111cf565b525461053b82896111cf565b5201610440565b346101d95760203660031901126101d95761055b61103e565b6105636111e3565b6001600160a01b0316801561064a5760c8600254111561060c575f8080806003548095826003555af16105946110fb565b50156105c75760207f1e60c8b9406778d44f1472bb7534c5cc8b5cedb3003c10bdc47687ade12b9e0e91604051908152a1005b60405162461bcd60e51b815260206004820152601b60248201527f53563a2073756273696479207472616e73666572206661696c656400000000006044820152606490fd5b60405162461bcd60e51b815260206004820152601660248201527553563a206561726c792065706f63682061637469766560501b6044820152606490fd5b60405162461bcd60e51b815260206004820152601060248201526f53563a207a65726f206164647265737360801b6044820152606490fd5b346101d9575f3660031901126101d957602060405160c88152f35b346101d95760203660031901126101d9576106b661103e565b5f60c06106c16110a1565b8281528260208201528260408201528260608201528260808201528260a0820152015260018060a01b03165f52600160205260e060405f206107016110a1565b815491828252600181015460208301908152600282015460408401908152600383015490606085019182526004840154926080860193845260c060ff600660058801549760a08a01988952015416960195151586526040519687525160208701525160408601525160608501525160808401525160a083015251151560c0820152f35b346101d9575f3660031901126101d9575f546040516001600160a01b039091168152602090f35b5f3660031901126101d9576107be611209565b335f52600160205260ff600660405f200154166108d45760045434106108c5576107e66110a1565b348152600660208201915f8352604081015f8152606082015f81526080830190611b58825260a084019242845260c085019660018852335f52600160205260405f2095518655516001860155516002850155516003840155516004830155516005820155019051151560ff80198354169116179055604051337f82d0829d9d481e4cb9913897f9b9c903271c4db68c7b3324071d2a7e3b2c5ff05f80a23481523460208201527f31d0128fde87d55666a93d97572f334813dc2cab5cf470392bfe57f51cc4c08460403392a260015f5160206112425f395f51905f5255005b6378de4a6960e11b5f5260045ffd5b630ea075bf60e21b5f5260045ffd5b346101d9575f3660031901126101d9576020604051603c8152f35b346101d9575f3660031901126101d95760206040516101f48152f35b346101d9575f3660031901126101d9576020606460025404604051908152f35b346101d9575f3660031901126101d9576020604051600f8152f35b346101d9575f3660031901126101d95761096d6111e3565b5f80546001600160a01b0319811682556001600160a01b03167f8be0079c531659141344cd1fd0a4f28419497f9722a3daafe3b4186f6b6457e08280a3005b346101d9575f3660031901126101d9576020600354604051908152f35b611023565b346101d95760203660031901126101d9576001600160a01b036109ef61103e565b16805f52600160205260ff600660405f2001541680610a16575b6020906040519015158152f35b505f526001602052602060405f20546004541115610a09565b5f3660031901126101d957610a42611209565b335f52600160205260ff600660405f2001541615610ac557335f52600160205260405f20610a71348254611087565b9055335f52600160205260405f20546040519034825260208201527f31d0128fde87d55666a93d97572f334813dc2cab5cf470392bfe57f51cc4c08460403392a260015f5160206112425f395f51905f5255005b6383bcfb4760e01b5f5260045ffd5b346101d9575f3660031901126101d957602060405160328152f35b346101d95760a03660031901126101d9576004356024356001600160a01b038116908190036101d95760055460443590606435906001600160a01b03163303610ec557610b3a611209565b825f52600160205260405f2060ff60068201541615610ac557610b5e600254611136565b600255600481019283546064840290841591858104606414831715610d6d576055820282810460551483151715610d6d576105dc870291808304600f1490151715610d6d5788926064610bd47f2ed1be7b07711efd90c5000efdf2bdeaaea6c114ce5f6aa59117630ff4c5cb8094604094611087565b048099556003870198610be78a54611136565b8a5582519182526020820152a2603c8410610da15750603b198301838111610d6d5781610c1391611144565b8060011b9080820460021490151715610d6d57610c3560646032920483611087565b94541115610d8c575b60c8600254111580610d81575b610d21575b5047808411610d18575b5080610c698460019354611087565b815501610c77838254611087565b90555f80808085875af1610c896110fb565b5015610cd3577ff0f44087179a926066b42ce5c1720884709cd0766b995b4595a33c8e4fd3a2b29160409182519182526020820152a35b60015f5160206112425f395f51905f5255005b60405162461bcd60e51b815260206004820152601a60248201527f53563a20726577617264207472616e73666572206661696c65640000000000006044820152606490fd5b92506001610c5a565b90926107d08202918083046107d01490151715610d6d57612710610d5e920490600354808311610d65575b82610d5691611094565b600355611087565b9185610c50565b915081610d4c565b634e487b7160e01b5f52601160045260245ffd5b506003541515610c4b565b9280600a610d9b920490611087565b92610c3e565b92909350606460025404925f14610e9957612710925b6005811015610e67576101f48102908082046101f41490151715610d6d576103e80193846103e811610d6d57610e1e604094612710927f3309ef8eec7fb459aca6c5a9cb6a1e1cda9954b367551e82e40a071f98425fb6975b808311610e5f575b50611144565b04918054808411610e57575b90610e3784600293611094565b815501610e45838254611087565b905582519182526020820152a3610cc0565b925082610e2a565b91508a610e18565b50612710610e1e6040947f3309ef8eec7fb459aca6c5a9cb6a1e1cda9954b367551e82e40a071f98425fb69683610e10565b80603c03603c8111610d6d5761271081029081046127101482603c141715610d6d57603c900492610db7565b63f579222d60e01b5f5260045ffd5b346101d95760203660031901126101d957600435610ef0611209565b335f52600160205260405f2060ff60068201541615610ac5578054610f1783600454611087565b81106108c55782610f2791611094565b90555f80808084335af1610f396110fb565b5015610f7e576040519081527f366aad71786c86a25c8e70832e1308e87662a4861edda4ae85ad947d858b9d1160203392a260015f5160206112425f395f51905f5255005b60405162461bcd60e51b815260206004820152601360248201527214d58e881d1c985b9cd9995c8819985a5b1959606a1b6044820152606490fd5b346101d9575f3660031901126101d95760206040516103e88152f35b5f3660031901126101d957610fe86111e3565b610ff434600354611087565b6003557f3d73b31cb59c248149cccdd07ebdc160551b1c86713dc1ce0d91a55b5b917a756020604051348152a1005b346101d9575f3660031901126101d957602060405160648152f35b600435906001600160a01b03821682036101d957565b90602080835192838152019201905f5b8181106110715750505090565b8251845260209384019390920191600101611064565b91908201809211610d6d57565b91908203918211610d6d57565b6040519060e0820182811067ffffffffffffffff8211176110c157604052565b634e487b7160e01b5f52604160045260245ffd5b6040519190601f01601f1916820167ffffffffffffffff8111838210176110c157604052565b3d15611131573d9067ffffffffffffffff82116110c157611125601f8301601f19166020016110d5565b9182523d5f602084013e565b606090565b5f198114610d6d5760010190565b81810292918115918404141715610d6d57565b67ffffffffffffffff81116110c15760051b60200190565b9061117c61040283611157565b828152809261118d601f1991611157565b0190602036910137565b91908110156111a75760051b0190565b634e487b7160e01b5f52603260045260245ffd5b356001600160a01b03811681036101d95790565b80518210156111a75760209160051b010190565b5f546001600160a01b031633036111f657565b63118cdaa760e01b5f523360045260245ffd5b60025f5160206112425f395f51905f5254146112325760025f5160206112425f395f51905f5255565b633ee5aeb560e01b5f5260045ffdfe9b779b17422d0df92223018b32b4d1fa46e071723d6817e2486d003becc55f00a26469706673582212206768fe2fb6691e45361fa08ee91a00418b21c3db1dbf37c7cb6d0331aee14d6b64736f6c634300081c0033",
  "linkReferences": {},
  "deployedLinkReferences": {}
}